{
  "contractName": "Auth",
  "abi": [
    {
      "inputs": [],
      "name": "login",
      "outputs": [
        {
          "internalType": "bytes32",
          "name": "",
          "type": "bytes32"
        }
      ],
      "stateMutability": "view",
      "type": "function"
    },
    {
      "inputs": [
        {
          "internalType": "bytes32",
          "name": "name",
          "type": "bytes32"
        }
      ],
      "name": "register",
      "outputs": [
        {
          "internalType": "bytes32",
          "name": "",
          "type": "bytes32"
        }
      ],
      "stateMutability": "payable",
      "type": "function"
    },
    {
      "inputs": [
        {
          "internalType": "bytes32",
          "name": "name",
          "type": "bytes32"
        }
      ],
      "name": "update",
      "outputs": [
        {
          "internalType": "bytes32",
          "name": "",
          "type": "bytes32"
        }
      ],
      "stateMutability": "payable",
      "type": "function"
    }
  ],
  "bytecode": "0x608060405234801561001057600080fd5b506106a9806100206000396000f3fe6080604052600436106100345760003560e01c80638b14724514610039578063b34e97e814610069578063e1fa8e8414610094575b600080fd5b610053600480360381019061004e9190610533565b6100c4565b604051610060919061056f565b60405180910390f35b34801561007557600080fd5b5061007e6102b9565b60405161008b919061056f565b60405180910390f35b6100ae60048036038101906100a99190610533565b610389565b6040516100bb919061056f565b60405180910390f35b6000816000801b81141561010d576040517f08c379a0000000000000000000000000000000000000000000000000000000008152600401610104906105e7565b60405180910390fd5b6000801b6000803373ffffffffffffffffffffffffffffffffffffffff1673ffffffffffffffffffffffffffffffffffffffff168152602001908152602001600020600001541415610194576040517f08c379a000000000000000000000000000000000000000000000000000000000815260040161018b90610653565b60405180910390fd5b6000801b6000803373ffffffffffffffffffffffffffffffffffffffff1673ffffffffffffffffffffffffffffffffffffffff168152602001908152602001600020600001541461026e57826000803373ffffffffffffffffffffffffffffffffffffffff1673ffffffffffffffffffffffffffffffffffffffff168152602001908152602001600020600001819055506000803373ffffffffffffffffffffffffffffffffffffffff1673ffffffffffffffffffffffffffffffffffffffff1681526020019081526020016000206000015491506102b3565b6000803373ffffffffffffffffffffffffffffffffffffffff1673ffffffffffffffffffffffffffffffffffffffff1681526020019081526020016000206000015491505b50919050565b60008060001b6000803373ffffffffffffffffffffffffffffffffffffffff1673ffffffffffffffffffffffffffffffffffffffff168152602001908152602001600020600001541415610342576040517f08c379a000000000000000000000000000000000000000000000000000000000815260040161033990610653565b60405180910390fd5b6000803373ffffffffffffffffffffffffffffffffffffffff1673ffffffffffffffffffffffffffffffffffffffff16815260200190815260200160002060000154905090565b6000816000801b8114156103d2576040517f08c379a00000000000000000000000000000000000000000000000000000000081526004016103c9906105e7565b60405180910390fd5b6000801b6000803373ffffffffffffffffffffffffffffffffffffffff1673ffffffffffffffffffffffffffffffffffffffff1681526020019081526020016000206000015414156104ad57826000803373ffffffffffffffffffffffffffffffffffffffff1673ffffffffffffffffffffffffffffffffffffffff168152602001908152602001600020600001819055506000803373ffffffffffffffffffffffffffffffffffffffff1673ffffffffffffffffffffffffffffffffffffffff1681526020019081526020016000206000015491506104f2565b6000803373ffffffffffffffffffffffffffffffffffffffff1673ffffffffffffffffffffffffffffffffffffffff1681526020019081526020016000206000015491505b50919050565b600080fd5b6000819050919050565b610510816104fd565b811461051b57600080fd5b50565b60008135905061052d81610507565b92915050565b600060208284031215610549576105486104f8565b5b60006105578482850161051e565b91505092915050565b610569816104fd565b82525050565b60006020820190506105846000830184610560565b92915050565b600082825260208201905092915050565b7f4e6f6d65206465207573756172696f20696e76616c69646f0000000000000000600082015250565b60006105d160188361058a565b91506105dc8261059b565b602082019050919050565b60006020820190508181036000830152610600816105c4565b9050919050565b7f5573756172696f206e616f207265676973747261646f00000000000000000000600082015250565b600061063d60168361058a565b915061064882610607565b602082019050919050565b6000602082019050818103600083015261066c81610630565b905091905056fea2646970667358221220b4a58a631a2d26939b06aae8c3819951f64168f6cb38ffe615916d916e7aedef64736f6c634300080a0033",
  "immutableReferences": {},
  "source": "// SPDX-License-Identifier: MIT\r\npragma solidity >=0.4.22 <0.9.0;\r\n\r\ncontract Auth {\r\n    struct User {\r\n        bytes32 name;\r\n    }\r\n\r\n    mapping (address => User) private users;\r\n\r\n    uint private id;\r\n\r\n    modifier onlyExistingUser {\r\n        require(\r\n            users[msg.sender].name != 0x0,\r\n            \"Usuario nao registrado\"\r\n        );\r\n        _;\r\n    }\r\n\r\n    modifier onlyValidName(bytes32 name) {\r\n        require(\r\n            name != 0x0,\r\n            \"Nome de usuario invalido\"\r\n        );\r\n        _;\r\n    }\r\n\r\n    function login() public view onlyExistingUser returns (bytes32) {\r\n        return (users[msg.sender].name);\r\n    }\r\n\r\n    function register(\r\n        bytes32 name\r\n    ) public payable onlyValidName(name) returns(bytes32) {\r\n        if (users[msg.sender].name == 0x0) {\r\n            users[msg.sender].name = name;\r\n            return (users[msg.sender].name);\r\n        }\r\n        return (users[msg.sender].name);\r\n    }\r\n\r\n    function update(\r\n        bytes32 name\r\n    ) public payable onlyValidName(name) onlyExistingUser returns(bytes32) {\r\n        if (users[msg.sender].name != 0x0){\r\n            users[msg.sender].name = name;\r\n            return (users[msg.sender].name);\r\n        }\r\n        return (users[msg.sender].name);\r\n    }\r\n}",
  "sourcePath": "C:\\Dev\\Workspaces\\Solidity\\inov-chain\\contracts\\Auth.sol",
  "compiler": {
    "name": "solc",
    "version": "0.8.10+commit.fc410830.Emscripten.clang"
  },
  "schemaVersion": "3.4.3",
  "updatedAt": "2021-12-08T21:16:33.063Z",
  "devdoc": {
    "kind": "dev",
    "methods": {},
    "version": 1
  },
  "userdoc": {
    "kind": "user",
    "methods": {},
    "version": 1
  }
}