{
  "contractName": "CertificateEmission",
  "abi": [
    {
      "inputs": [],
      "name": "certCount",
      "outputs": [
        {
          "internalType": "uint256",
          "name": "",
          "type": "uint256"
        }
      ],
      "stateMutability": "view",
      "type": "function",
      "constant": true
    },
    {
      "inputs": [
        {
          "internalType": "address",
          "name": "",
          "type": "address"
        }
      ],
      "name": "certificates",
      "outputs": [
        {
          "internalType": "bytes32",
          "name": "certIpfsHash",
          "type": "bytes32"
        },
        {
          "internalType": "bytes32",
          "name": "description",
          "type": "bytes32"
        },
        {
          "internalType": "bool",
          "name": "active",
          "type": "bool"
        }
      ],
      "stateMutability": "view",
      "type": "function",
      "constant": true
    },
    {
      "inputs": [],
      "name": "getOwner",
      "outputs": [
        {
          "internalType": "address",
          "name": "",
          "type": "address"
        }
      ],
      "stateMutability": "view",
      "type": "function",
      "constant": true
    },
    {
      "inputs": [
        {
          "internalType": "address",
          "name": "_receiver",
          "type": "address"
        },
        {
          "internalType": "bytes32",
          "name": "_certIpfsHash",
          "type": "bytes32"
        },
        {
          "internalType": "bytes32",
          "name": "_description",
          "type": "bytes32"
        }
      ],
      "name": "newCertificate",
      "outputs": [],
      "stateMutability": "nonpayable",
      "type": "function"
    },
    {
      "inputs": [
        {
          "internalType": "address",
          "name": "_receiver",
          "type": "address"
        },
        {
          "internalType": "bytes32",
          "name": "_certIpfsHash",
          "type": "bytes32"
        }
      ],
      "name": "updateCertificateImage",
      "outputs": [],
      "stateMutability": "nonpayable",
      "type": "function"
    },
    {
      "inputs": [
        {
          "internalType": "address",
          "name": "_receiver",
          "type": "address"
        },
        {
          "internalType": "bytes32",
          "name": "_description",
          "type": "bytes32"
        }
      ],
      "name": "updateCertificateDescription",
      "outputs": [],
      "stateMutability": "nonpayable",
      "type": "function"
    },
    {
      "inputs": [
        {
          "internalType": "address",
          "name": "_receiver",
          "type": "address"
        },
        {
          "internalType": "bool",
          "name": "_active",
          "type": "bool"
        }
      ],
      "name": "setActive",
      "outputs": [],
      "stateMutability": "nonpayable",
      "type": "function"
    }
  ],
  "bytecode": "0x608060405234801561001057600080fd5b50336000806101000a81548173ffffffffffffffffffffffffffffffffffffffff021916908373ffffffffffffffffffffffffffffffffffffffff160217905550610aa3806100606000396000f3fe608060405234801561001057600080fd5b506004361061007c5760003560e01c8063893d20e81161005b578063893d20e8146100eb57806399e0028514610109578063d4e207a214610125578063e5228f39146101435761007c565b806216e526146100815780632ce962cf146100b357806372c1ddf3146100cf575b600080fd5b61009b60048036038101906100969190610692565b61015f565b6040516100aa939291906106f3565b60405180910390f35b6100cd60048036038101906100c89190610756565b610196565b005b6100e960048036038101906100e491906107c2565b610282565b005b6100f361044e565b6040516101009190610824565b60405180910390f35b610123600480360381019061011e919061083f565b610477565b005b61012d610550565b60405161013a9190610898565b60405180910390f35b61015d6004803603810190610158919061083f565b610556565b005b60026020528060005260406000206000915090508060000154908060010154908060020160009054906101000a900460ff16905083565b60008054906101000a900473ffffffffffffffffffffffffffffffffffffffff1673ffffffffffffffffffffffffffffffffffffffff163373ffffffffffffffffffffffffffffffffffffffff1614610224576040517f08c379a000000000000000000000000000000000000000000000000000000000815260040161021b90610936565b60405180910390fd5b80600260008473ffffffffffffffffffffffffffffffffffffffff1673ffffffffffffffffffffffffffffffffffffffff16815260200190815260200160002060020160006101000a81548160ff0219169083151502179055505050565b60008054906101000a900473ffffffffffffffffffffffffffffffffffffffff1673ffffffffffffffffffffffffffffffffffffffff163373ffffffffffffffffffffffffffffffffffffffff1614610310576040517f08c379a000000000000000000000000000000000000000000000000000000000815260040161030790610936565b60405180910390fd5b8260008054906101000a900473ffffffffffffffffffffffffffffffffffffffff1673ffffffffffffffffffffffffffffffffffffffff168173ffffffffffffffffffffffffffffffffffffffff1614156103a0576040517f08c379a0000000000000000000000000000000000000000000000000000000008152600401610397906109c8565b60405180910390fd5b604051806060016040528084815260200183815260200160011515815250600260008673ffffffffffffffffffffffffffffffffffffffff1673ffffffffffffffffffffffffffffffffffffffff168152602001908152602001600020600082015181600001556020820151816001015560408201518160020160006101000a81548160ff021916908315150217905550905050600180546104429190610a17565b60018190555050505050565b60008060009054906101000a900473ffffffffffffffffffffffffffffffffffffffff16905090565b60008054906101000a900473ffffffffffffffffffffffffffffffffffffffff1673ffffffffffffffffffffffffffffffffffffffff163373ffffffffffffffffffffffffffffffffffffffff1614610505576040517f08c379a00000000000000000000000000000000000000000000000000000000081526004016104fc90610936565b60405180910390fd5b80600260008473ffffffffffffffffffffffffffffffffffffffff1673ffffffffffffffffffffffffffffffffffffffff168152602001908152602001600020600101819055505050565b60015481565b60008054906101000a900473ffffffffffffffffffffffffffffffffffffffff1673ffffffffffffffffffffffffffffffffffffffff163373ffffffffffffffffffffffffffffffffffffffff16146105e4576040517f08c379a00000000000000000000000000000000000000000000000000000000081526004016105db90610936565b60405180910390fd5b80600260008473ffffffffffffffffffffffffffffffffffffffff1673ffffffffffffffffffffffffffffffffffffffff168152602001908152602001600020600001819055505050565b600080fd5b600073ffffffffffffffffffffffffffffffffffffffff82169050919050565b600061065f82610634565b9050919050565b61066f81610654565b811461067a57600080fd5b50565b60008135905061068c81610666565b92915050565b6000602082840312156106a8576106a761062f565b5b60006106b68482850161067d565b91505092915050565b6000819050919050565b6106d2816106bf565b82525050565b60008115159050919050565b6106ed816106d8565b82525050565b600060608201905061070860008301866106c9565b61071560208301856106c9565b61072260408301846106e4565b949350505050565b610733816106d8565b811461073e57600080fd5b50565b6000813590506107508161072a565b92915050565b6000806040838503121561076d5761076c61062f565b5b600061077b8582860161067d565b925050602061078c85828601610741565b9150509250929050565b61079f816106bf565b81146107aa57600080fd5b50565b6000813590506107bc81610796565b92915050565b6000806000606084860312156107db576107da61062f565b5b60006107e98682870161067d565b93505060206107fa868287016107ad565b925050604061080b868287016107ad565b9150509250925092565b61081e81610654565b82525050565b60006020820190506108396000830184610815565b92915050565b600080604083850312156108565761085561062f565b5b60006108648582860161067d565b9250506020610875858286016107ad565b9150509250929050565b6000819050919050565b6108928161087f565b82525050565b60006020820190506108ad6000830184610889565b92915050565b600082825260208201905092915050565b7f536f6d656e7465206f20646f6e6f20646f20636f6e747261746f20706f64652060008201527f657865637574617220657373612066756e63616f2e0000000000000000000000602082015250565b60006109206035836108b3565b915061092b826108c4565b604082019050919050565b6000602082019050818103600083015261094f81610913565b9050919050565b7f4f20646f6e6f20646f20636f6e747261746f206e616f20706f6465207265636560008201527f62657220636572746966696361646f732e000000000000000000000000000000602082015250565b60006109b26031836108b3565b91506109bd82610956565b604082019050919050565b600060208201905081810360008301526109e1816109a5565b9050919050565b7f4e487b7100000000000000000000000000000000000000000000000000000000600052601160045260246000fd5b6000610a228261087f565b9150610a2d8361087f565b9250827fffffffffffffffffffffffffffffffffffffffffffffffffffffffffffffffff03821115610a6257610a616109e8565b5b82820190509291505056fea26469706673582212209dcd9832c237ff72b8ebf5cc22fcab906aab6d259af1e9f65bb2136e8bf9072a64736f6c634300080a0033",
  "immutableReferences": {},
  "source": "// SPDX-License-Identifier: MIT\r\npragma solidity >=0.4.22 <0.9.0;\r\n\r\nimport \"./Ownable.sol\";\r\n\r\ncontract CertificateEmission is Ownable{\r\n    uint public certCount;\r\n\r\n    struct Certificate {\r\n        bytes32 certIpfsHash;\r\n        bytes32 description;\r\n        bool active;\r\n    }\r\n\r\n    mapping (address => Certificate) public certificates;\r\n\r\n    function newCertificate(\r\n        address _receiver, \r\n        bytes32 _certIpfsHash, \r\n        bytes32 _description\r\n    ) public onlyOwner receiverIsNotContractOwner(_receiver) {\r\n        certificates[_receiver] = Certificate(_certIpfsHash, _description, true);\r\n        certCount = certCount + 1;\r\n    }\r\n\r\n    function updateCertificateImage(\r\n        address _receiver, \r\n        bytes32 _certIpfsHash\r\n    ) public onlyOwner {\r\n        certificates[_receiver].certIpfsHash = _certIpfsHash;\r\n    }\r\n\r\n    function updateCertificateDescription(\r\n        address _receiver, \r\n        bytes32 _description\r\n    ) public onlyOwner {\r\n        certificates[_receiver].description = _description;\r\n    }\r\n\r\n    function setActive(\r\n        address _receiver, \r\n        bool _active\r\n    ) public onlyOwner {\r\n        certificates[_receiver].active = _active;\r\n    }\r\n\r\n}",
  "sourcePath": "C:\\Dev\\Workspaces\\Solidity\\inov-chain\\contracts\\CertificateEmission.sol",
  "compiler": {
    "name": "solc",
    "version": "0.8.10+commit.fc410830.Emscripten.clang"
  },
  "schemaVersion": "3.4.3",
  "updatedAt": "2021-12-08T21:17:22.818Z",
  "networkType": "ethereum",
  "devdoc": {
    "kind": "dev",
    "methods": {},
    "version": 1
  },
  "userdoc": {
    "kind": "user",
    "methods": {},
    "version": 1
  }
}